:020000040000FA
:04000000CDEF3FF011
:107F9A000001D0EF3FF0000E956E010E8C6E030EBD
:107FAA00026EE80E016EE3EC3FF0000E8C6E030EDB
:107FBA00026EE80E016EE3EC3FF0EFD7000E046E9E
:107FCA00000E036E000E066E000E056E054A062AA6
:107FDA0006BEFCD7E80E055C030E0658D8A0F6D7F5
:107FEA00034A042A04BEEED7E80E035C030E0458C3
:067FFA00D8B01200E7D729
:020000040020DA
:08000000FFFFFFFFFFFFFFFF00
:020000040030CA
:0E00000000051F1FFF8385FF0FC00FE00F409C
:00000001FF
